:020000040000FA
:02000000D42802
:040002000034003492
:080008003D0010081205F10093
:10001000711A1328F1191528F118112871181728C9
:1000200009009301192874201928F020192860204C
:1000300019283D00900120001211090020008E16A1
:10004000080020008E1208000030840003011A000E
:1000500040301A0040301A0020301A0003011A0004
:1000600040301A0080301A0020301A0003011A00B4
:1000700002301A00C0301A0020301A0003011A00A2
:1000800002301A00E0301A0020301A003D0011162C
:1000900011150130F000FF30F300FB000030980034
:1000A0009900930190019F30970013309200210036
:1000B0001A1F57283D008E158E1A5C288B170800D2
:1000C00021200130F000FF30F300FB00F2013D0081
:1000D0001B30920090119011901190010E128A2005
:1000E000912016309800080022000E088E0127008B
:1000F000A7003D00101112128E14101D7D288E10C5
:10010000101212161011101982282700270820003B
:100110008E0008000130840040301B0080018017F1
:1001200008000530840040301B0080018017080063
:100130000930840002301B008001801708000D3058
:10014000840002301B00800180170800003084000A
:1001500000150800043084000015080008308400F1
:10016000001508000C3084000015080004308400DD
:100170008001840A800184034830800080170800D1
:100180000730840020301B0080301B0075081B00E6
:10019000483080008017080020007F309C008030AD
:1001A0009B009A01911008000B178E0123008E010D
:1001B00021001215DF308E001917951320308500AD
:1001C000CC20242003307006031DE2282000911C5F
:1001D000E22820000E081F39F90064229110E2285D
:1001E0003D0078300F05031D792A04300F05031DEB
:1001F0000729003084003C300005F40034307406D8
:1002000003191121043074060319962108000430E3
:1002100084003C300005F40024307406031990215A
:1002200008004030840060300005203A0319172A86
:1002300000300006031931298030000603194829CF
:100240000130000603195729813000060319662979
:10025000023000060319752982300006031980292F
:100260008B2941308400013000060319AA21033094
:1002700000060319AC21053000060319AE21073032
:1002800000060319BF21093000060319CF218B296D
:10029000413084000030000603199E21063000061C
:1002A00003198522083000060319C1218B2941302A
:1002B0008400013000060319EC2103300006031905
:1002C000EE210B300006031903228B2941308400F4
:1002D000003000060319E0210630000603198522CC
:1002E0000A3000060319F2218B29413084000130C5
:1002F00000060319112203300006031913228B296B
:100300004130840000300006031905220C3000063D
:10031000031915228B298A203D000E129011080026
:10032000053073060319B6219120080009307306C1
:1003300003195A22FF30F3008A200800803084001D
:1003400001301200003080000230F500C020003083
:10035000F3000800AA200800AA200800B6204230B6
:1003600084000008F2000530F300080072083D0028
:100370009600F2010230F000FF30F3000800AA20DE
:100380000800803084000130800003307006031DB7
:1003900080010130F500C0200830F3000800423031
:1003A0008400013000060319D729AA200800B620CE
:1003B0003D001E30990098200330F0001E200800F8
:1003C0008030840000301200003080000230F500E0
:1003D000C0200030F3000800AA200800AA2008006E
:1003E000AA2008004430840080080319F929AA20B3
:1003F000080080308400003012000130F500C02079
:100400000A30F3000800AA20080080308400003081
:100410001200003080000230F500C0200030F300F0
:100420000800AA200800AA200800AA2008004130DD
:100430008400013000060319322A02300006031935
:10044000532A033000060319552A09300006031900
:10045000572A0A3000060319602A0B3000060319D8
:10046000622A8B29423084001200F7000008F6004F
:10047000463084000008F500013076060319462A4C
:10048000033076060319512AAA208B298030840074
:10049000200079081A000130F500C0200130F30077
:1004A0008B29AA208B29AA208B29AA208B290930E5
:1004B000F3008B29403084001200FA00B6200800B7
:1004C000AA208B29B6208B29FF307B06031D08004C
:1004D000E030840079081A000D30840001301B00E0
:1004E000003080007E1800178017FB30FB00FE0AEA
:1004F00008003D0004300F050319812AFF30FB007E
:1005000008009820FF30FB0008000630F30042305E
:1005100084001200F7000008F6004630840000084E
:10052000F50080308400F801013076060319C822F6
:10053000023076060319EF220330760603194223B0
:1005400004307606031908230530760603191D23A7
:10055000213076060319A423223076060319B92325
:10056000F808031DB72A0430840000150800780835
:10057000750278080318F5000730840020301B004E
:1005800080301B0075081B00483080008017080071
:1005900012301A0001301A0000301A0002301A001E
:1005A00000301A0000301A0000301A0040301A00E3
:1005B000D8301A0004301A0077301A00CC301A00F4
:1005C00001301A0000301A0001301A0002301A00FF
:1005D00000301A0001301A001230F800080009300B
:1005E0001A0002301A0029301A0000301A000130B7
:1005F0001A0001301A0000301A00A0301A00323000
:100600001A000823A423202331232930F8000800EE
:1006100009301A0004301A0000301A0000301A00A5
:1006200002301A0003301A0000301A0000301A009D
:1006300000301A000930F8000800F708031D312BBC
:1006400007301A0005301A0081301A0003301A00F2
:1006500004301A0000301A000A301A000730F8007F
:10066000080007301A0005301A0001301A00033064
:100670001A0004301A0000301A000A301A0007303D
:10068000F80008007708003A03194F2B7708013A61
:1006900003195A2B7708023A03197D2B08000430FE
:1006A0001A0003301A0009301A0004301A0004300E
:1006B000F800080010301A0003301A0041301A0008
:1006C00000301A0063301A0000301A0065301A003A
:1006D00000301A0054301A0000301A0065301A0039
:1006E00000301A0063301A0000301A0068301A0017
:1006F00000301A001030F800080012301A000330E1
:100700001A0044301A0000301A006F301A0000300E
:100710001A006F301A0000301A0072301A000030D0
:100720001A0062301A0000301A0065301A000030DA
:100730001A006C301A0000301A006C301A000030B9
:100740001A001230F800080009301A0021301A008F
:1007500011301A0001301A0000301A0001301A005E
:1007600022301A0022301A0000301A000930F80036
:10077000080006301A00A0301A00FF301A000930B5
:100780001A0002301A00A1301A0001301A00093094
:100790001A0003301A0015301A0000301A002630F3
:1007A0001A00FF301A0000301A0075301A000830A5
:1007B0001A0095301A0001301A0081301A000230F8
:1007C0001A0009301A0004301A0015301A000030DF
:1007D0001A0026301A00FF301A0000301A00753057
:1007E0001A0008301A0095301A0001301A009130B2
:1007F0001A0002301A00C0301A002230F800080037
:020000040001F9
:02000E00C20F1F
:02001000FF39B6
:00000001FF
